:1000000019C028C027C026C025C024C023C022C0D4
:1000100021C020C020C01EC01DC01CC01BC01AC0F3
:1000200019C018C017C016C015C014C013C012C024
:1000300011C010C011241FBECFEFCDBFDFE3DEBF64
:100040002FE3A0E0BFE301C01D92A130B207E1F7AA
:1000500015D0C4C0D5CF8F931F9280E0182E80E1B9
:1000600080930B0A1092000A81E08093003F109267
:1000700020040C980F981F908F91189588ED84BFDD
:1000800081E08093610080E98093000480911504F1
:10009000886080931504F894109220040C980F98AF
:1000A000109224047894000000000000000000007A
:1000B0000000000000000000000000000000000040
:1000C0000000000000000000000000000000000030
:1000D0000000000000008091080485FFFFCF80E150
:1000E00040E25EE421E03FE0F894109220040C9896
:1000F0000F98109224047894000000000000000083
:10010000000000001199FECF000000000000000078
:1001100000000000119BFECF1092003F1092000AD9
:100120001092200A1092210A8093010A4093280A13
:100130005093290A80930A0A2093000A00000000C5
:1001400000000000000000001199FECF9091003FD8
:100150009111CACF00000000000000000000000064
:10016000119BFECF9091003F9111BECF0000000087
:1001700000000000000000001199FECFF8940F9AD3
:10018000309320040C9A78949091003F9111ACCF59
:10019000000000000000000000000000119BFECFE6
:1001A000F894109220040F9830932404789490913E
:1001B000003F911199CF00000000000000000000F6
:1001C00000001199FECFF8940F9A309320040C98F8
:1001D00078949091003F9115E1F386CFF894FFCF8A
:00000001FF
